:020000040800F2
:10000000000005202D8B0008798800087B880008F7
:100010007D8800087F8800088188000800000000B3
:1000200000000000000000000000000083880008BD
:10003000858800080000000087880008898800087B
:100040007D8B00087D8B00087D8B00087D8B000870
:100050007D8B00087D8B00087D8B00087D8B000860
:100060007D8B00087D8B00087D8B00087D8B000850
:100070007D8B00087D8B00087D8B00087D8B000840
:100080007D8B00087D8B00087D8B00087D8B000830
:100090007D8B00087D8B00087D8B00087D8B000820
:1000A0007D8B00087D8B00087D8B00087D8B000810
:1000B0007D8B00087D8B00087D8B00087D8B000800
:1000C0007D8B00087D8B00087D8B00087D8B0008F0
:1000D0007D8B00087D8B00087D8B00087D8B0008E0
:1000E0007D8B00087D8B00087D8B00087D8B0008D0
:1000F0007D8B00087D8B00087D8B00087D8B0008C0
:100100007D8B00087D8B00087D8B00087D8B0008AF
:100110007D8B00087D8B00087D8B00087D8B00089F
:100120007D8B00087D8B00087D8B00087D8B00088F
:100130007D8B00087D8B00087D8B00087D8B00087F
:100140007D8B00087D8B00087D8B00088D88000862
:100150007D8B00087D8B00087D8B00087D8B00085F
:100160007D8B00087D8B00087D8B00087D8B00084F
:100170007D8B00087D8B000800000000000000005F
:100180007D8B00087D8B00087D8B00087D8B00082F
:100190007D8B00087D8B0008000000007D8B00082F
:1001A0007D8B00087D8B000800000000000000002F
:1001B0007D8B000800000000000000007D8B00081F
:1001C0007D8B00087D8B00087D8B00087D8B0008EF
:0801D0007D8B00087D8B000807
:1001E00010B5054C237833B9044B13B10448AFF371
:1001F00000800123237010BDA40100200000000036
:10020000109C000808B5034B1BB103490348AFF32A
:10021000008008BD00000000A8010020109C00081C
:1002200001F0FF01102A2BDB10F0070F08D010F8A7
:10023000013B013A8B422DD010F0070F42B3F6D1AB
:10024000F0B441EA012141EA014122F007047FF0C4
:1002500000070023F0E80256083C85EA010586EA1B
:10026000010685FA47F5A3FA87F586FA47F6A5FA57
:1002700087F68EB9EED1F0BC01F0FF0102F0070263
:1002800032B110F8013B013A83EA010313B1F8D10E
:100290000020704701387047002D06BF35460338EF
:1002A000073815F0010F07D1013015F4807F02BF28
:1002B000013015F4C03F0130F0BC0138704700BF79
:1002C00081F0004102E000BF83F0004330B54FEA07
:1002D00041044FEA430594EA050F08BF90EA020F74
:1002E0001FBF54EA000C55EA020C7FEA645C7FEA07
:1002F000655C00F0E2804FEA5454D4EB5555B8BF2A
:100300006D420CDD2C4480EA020281EA030382EA9A
:10031000000083EA010180EA020281EA0303362D2C
:1003200088BF30BD11F0004F4FEA01314FF4801CFF
:100330004CEA113102D0404261EB410113F0004F11
:100340004FEA03334CEA133302D0524263EB4303C8
:1003500094EA050F00F0A780A4F10104D5F1200E66
:100360000DDB02FA0EFC22FA05F2801841F10001C1
:1003700003FA0EF2801843FA05F359410EE0A5F195
:1003800020050EF1200E012A03FA0EFC28BF4CF0C6
:10039000020C43FA05F3C01851EBE37101F000457C
:1003A00007D54FF0000EDCF1000C7EEB00006EEB89
:1003B0000101B1F5801F1BD3B1F5001F0CD3490813
:1003C0005FEA30004FEA3C0C04F101044FEA44526A
:1003D00012F5800F80F09A80BCF1004F08BF5FEAF1
:1003E000500C50F1000041EB045141EA050130BDD1
:1003F0005FEA4C0C404141EB010111F4801FA4F174
:100400000104E9D191F0000F04BF01460020B1FAC8
:1004100081F308BF2033A3F10B03B3F120020CDA00
:100420000C3208DD02F1140CC2F10C0201FA0CF0DE
:1004300021FA02F10CE002F11402D8BFC2F1200C43
:1004400001FA02F120FA0CFCDCBF41EA0C019040F9
:10045000E41AA2BF01EB0451294330BD6FEA040442
:100460001F3C1CDA0C340EDC04F11404C4F120022D
:1004700020FA04F001FA02F340EA030021FA04F33F
:1004800045EA030130BDC4F10C04C4F1200220FA96
:1004900002F001FA04F340EA0300294630BD21FAD4
:1004A00004F0294630BD94F0000F83F4801306BF9A
:1004B00081F480110134013D4EE77FEA645C18BF8E
:1004C0007FEA655C29D094EA050F08BF90EA020F25
:1004D00005D054EA000C04BF1946104630BD91EA1D
:1004E000030F1EBF0021002030BD5FEA545C05D120
:1004F0004000494128BF41F0004130BD14F580045F
:100500003CBF01F5801130BD01F0004545F0FE41D2
:1005100041F470014FF0000030BD7FEA645C1ABF07
:10052000194610467FEA655C1CBF0B46024650EA3E
:10053000013406BF52EA033591EA030F41F400216A
:1005400030BD00BF90F0000F04BF0021704730B5F0
:100550004FF4806404F132044FF000054FF00001C5
:1005600050E700BF90F0000F04BF0021704730B586
:100570004FF4806404F1320410F0004548BF40425B
:100580004FF000013EE700BF42004FEAE2014FEAB0
:1005900031014FEA02701FBF12F07F4393F07F4F8B
:1005A00081F06051704792F0000F14BF93F07F4FBD
:1005B000704730B54FF4607401F0004521F0004100
:1005C00020E700BF50EA010208BF704730B54FF086
:1005D00000050AE050EA010208BF704730B511F08B
:1005E000004502D5404261EB41014FF4806404F1C3
:1005F00032045FEA915C3FF4DCAE4FF003025FEA45
:10060000DC0C18BF03325FEADC0C18BF033202EBCC
:10061000DC02C2F1200300FA03FC20FA02F001FA26
:1006200003FE40EA0E0021FA02F11444C1E600BFC5
:1006300070B54FF0FF0C4CF4E06C1CEA11541DBF78
:100640001CEA135594EA0C0F95EA0C0F00F0DEF843
:100650002C4481EA030621EA4C5123EA4C5350EA28
:10066000013518BF52EA033541F4801143F4801379
:1006700038D0A0FB02CE4FF00005E1FB02E506F00A
:100680000042E0FB03E54FF00006E1FB03569CF05F
:10069000000F18BF4EF0010EA4F1FF04B6F5007F65
:1006A00064F5407404D25FEA4E0E6D4146EB0606D7
:1006B00042EAC62141EA55514FEAC52040EA5E5060
:1006C0004FEACE2EB4F1FD0C88BFBCF5E06F1ED80A
:1006D000BEF1004F08BF5FEA500E50F1000041EB41
:1006E000045170BD06F0004646EA010140EA0200EE
:1006F00081EA0301B4EB5C04C2BFD4EB0C0541EA10
:10070000045170BD41F480114FF0000E013C00F324
:10071000AB8014F1360FDEBF002001F0004170BD48
:10072000C4F10004203C35DA0C341BDC04F1140461
:10073000C4F1200500FA05F320FA04F001FA05F2ED
:1007400040EA020001F0004221F0004110EBD370BA
:1007500021FA04F642EB06015EEA430E08BF20EAE6
:10076000D37070BDC4F10C04C4F1200500FA04F389
:1007700020FA05F001FA04F240EA020001F000411B
:1007800010EBD37041F100015EEA430E08BF20EA8E
:10079000D37070BDC4F1200500FA05F24EEA020ED6
:1007A00020FA04F301FA05F243EA020321FA04F005
:1007B00001F0004121FA04F220EA020000EBD370BC
:1007C0005EEA430E08BF20EAD37070BD94F0000FBC
:1007D0000FD101F00046400041EB010111F4801FF0
:1007E00008BF013CF7D041EA060195F0000F18BFA1
:1007F000704703F00046520043EB030313F4801FDD
:1008000008BF013DF7D043EA0603704794EA0C0F96
:100810000CEA135518BF95EA0C0F0CD050EA4106AC
:1008200018BF52EA4306D1D181EA030101F0004129
:100830004FF0000070BD50EA410606BF1046194651
:1008400052EA430619D094EA0C0F02D150EA01365D
:1008500013D195EA0C0F05D152EA03361CBF10469E
:1008600019460AD181EA030101F0004141F0FE413D
:1008700041F470014FF0000070BD41F0FE4141F4C1
:10088000780170BD70B54FF0FF0C4CF4E06C1CEAC1
:1008900011541DBF1CEA135594EA0C0F95EA0C0F76
:1008A00000F0A7F8A4EB050481EA030E52EA033531
:1008B0004FEA013100F088804FEA03334FF0805552
:1008C00045EA131343EA12634FEA022245EA11157F
:1008D00045EA10654FEA00260EF000419D4208BF30
:1008E000964244F1FD0404F5407402D25B084FEADD
:1008F0003202B61A65EB03055B084FEA32024FF489
:1009000080104FF4002CB6EB020E75EB030E22BFE5
:10091000B61A754640EA0C005B084FEA3202B6EBA5
:10092000020E75EB030E22BFB61A754640EA5C0054
:100930005B084FEA3202B6EB020E75EB030E22BFE4
:10094000B61A754640EA9C005B084FEA3202B6EBE5
:10095000020E75EB030E22BFB61A754640EADC00A4
:1009600055EA060E18D04FEA051545EA16754FEA06
:1009700006164FEAC30343EA52734FEAC2025FEA24
:100980001C1CC0D111F4801F0BD141EA00014FF0B3
:1009900000004FF0004CB6E711F4801F04BF014384
:1009A0000020B4F1FD0C88BFBCF5E06F3FF6AFAEA0
:1009B000B5EB030C04BFB6EB020C5FEA500C50F130
:1009C000000041EB045170BD0EF0004E4EEA1131B3
:1009D00014EB5C04C2BFD4EB0C0541EA045170BDBA
:1009E00041F480114FF0000E013C90E645EA060EFE
:1009F0008DE60CEA135594EA0C0F08BF95EA0C0F2C
:100A00003FF43BAF94EA0C0F0AD150EA01347FF473
:100A100034AF95EA0C0F7FF425AF104619462CE74A
:100A200095EA0C0F06D152EA03353FF4FDAE1046AD
:100A3000194622E750EA410618BF52EA43067FF4FE
:100A4000C5AE50EA41047FF40DAF52EA43057FF48E
:100A5000EBAE12E74FEA410212F5001215D211D5A2
:100A60006FF47873B3EB625212D94FEAC12343F0AB
:100A7000004343EA505311F0004F23FA02F018BF2D
:100A8000404270474FF00000704750EA013005D1F6
:100A900011F0004008BF6FF0004070474FF00000B9
:100AA000704700BF53B94AB9002908BF00281CBFCE
:100AB0004FF0FF314FF0FF3000F07AB9ADF1080C84
:100AC0006DE904CE00F006F8DDF804E0DDE902236C
:100AD00004B070472DE9F0478C460D460446089E49
:100AE000002B51D18A4217466DD9B2FA82FEBEF16F
:100AF000000F0BD0CEF1200C01FA0EF520FA0CFC01
:100B000002FA0EF74CEA050C00FA0EF44FEA174A07
:100B1000250CBCFBFAF81FFA87F90AFB18CC45EA4A
:100B20000C4508FB09F3AB420AD9ED1908F1FF3275
:100B300080F02381AB4240F22081A8F102083D44BD
:100B4000ED1AA4B2B5FBFAF00AFB105544EA0544CD
:100B500000FB09F9A14509D9E41900F1FF3380F040
:100B60000A81A14540F2078102383C44A4EB090404
:100B700040EA08400021002E61D024FA0EF4002340
:100B800034607360BDE8F0878B4207D9002E54D0E3
:100B9000002186E821000846BDE8F087B3FA83F11A
:100BA000002940F08E80AB4202D3824200F2FA80EC
:100BB000841A65EB03050120AC46002E3FD086E881
:100BC0001010BDE8F08712B90127B7FBF2F7B7FAAA
:100BD00087FEBEF1000F34D1EB1B3A0C1FFA87FCE5
:100BE0000121B3FBF2F8250C02FB183345EA03455B
:100BF0000CFB08F3AB4207D9ED1908F1FF3002D224
:100C0000AB4200F2D1808046ED1AA3B2B5FBF2F000
:100C100002FB105543EA05440CFB00FCA44507D930
:100C2000E41900F1FF3302D2A44500F2B88018465F
:100C3000A4EB0C0440EA08409DE731463046BDE88D
:100C4000F087CEF1200405FA0EF307FA0EF720FA2A
:100C500004F83A0C25FA04F448EA0308B4FBF2F16C
:100C60004FEA184502FB11441FFA87FC45EA044588
:100C700001FB0CF3AB4200FA0EF409D9ED1901F1B6
:100C8000FF3080F08A80AB4240F2878002393D44D9
:100C9000EB1A1FFA88F5B3FBF2F002FB103345EABA
:100CA000034500FB0CF3AB4207D9ED1900F1FF3807
:100CB0006FD2AB426DD902383D44EB1A40EA014194
:100CC0008FE7C1F1200722FA07F88B4005FA01F4FB
:100CD00048EA030320FA07FE4FEA134CFD404EEAB0
:100CE000040EB5FBFCF94FEA1E440CFB19551FFA24
:100CF00083F844EA054509FB08F4AC4202FA01F224
:100D000000FA01FA08D9ED1809F1FF3043D2AC42DC
:100D100041D9A9F102091D442D1B1FFA8EFEB5FB16
:100D2000FCF00CFB10554EEA054400FB08F8A0450A
:100D300007D9E41800F1FF3529D2A04527D9023898
:100D40001C4440EA0940A4EB0804A0FB02894C457E
:100D5000C6464D4615D312D056B1BAEB0E0364EB1E
:100D6000050404FA07F7CB401F43CC40376074609A
:100D70000021BDE8F0871846F8E69046E0E6C24557
:100D8000EAD2B8EB020E69EB03050138E4E7284626
:100D9000D7E7404691E78146BEE7014678E702384B
:100DA0003C4445E7084608E7A8F102083D442BE724
:100DB000704700BF01230B70102300208B60054A91
:100DC000487000238870C8704860C8600B614A6131
:100DD0008B6170470000C84301238B703223CB60C6
:100DE000002300200B614B61034B08704870C870F2
:100DF000486088608B6170470000C8424FF07F53A5
:100E00000B600020704732230B60002070470020E9
:100E1000704738B500F11C0401210546204600F05A
:100E200061FC014610B14FF0FF3038BD204600F0A4
:100E3000E9FC01460028F6D1052385F82A30204632
:100E400000F008FC01460028EDD1204600F026FC09
:100E50000028E8D1012385F8283038BD022908B5DB
:100E60000DDD04290DDD0929B4BF022103211C3049
:100E700000F014FC003018BF0120404208BD0021E2
:100E8000F5E70121F3E708B51C3000F09BFC0030CA
:100E900018BF0120404208BD37B500F11C050C46C3
:100EA00028460DF1060100F0B5FB10B14FF0FF3000
:100EB00017E00DF10701284600F0E2FB0028F5D10C
:100EC0009DF80630022B9DF807300ED1092BEDD886
:100ED000DFE803F02426292B2D2F31330509194B88
:100EE000236003B030BD184BFAE7092BDED801A20E
:100EF00052F823F01D0F0008210F0008270F0008EB
:100F00002B0F00082F0F0008330F0008370F0008C1
:100F10003B0F0008AD0E00083F0F00080023DFE77D
:100F20004FF07E53DCE7094BDAE7094BD8E7094B72
:100F3000D6E7094BD4E7094BD2E7094BD0E7094B79
:100F4000CEE700BF0080CA440000A8450000204151
:100F50000000C841000048420000C8420000484369
:100F60000000C8430000A84413B50C461C300DF126
:100F7000070100F0A9FB88B99DF80730032B0DD8B5
:100F8000DFE803F00206080A0223236002B010BD66
:100F90000423FAE70823F8E71023F6E74FF0FF30C1
:100FA000F4E700007FB500F11C060C4630460DF159
:100FB000070100F02FFB18B14FF0FF3004B070BDF7
:100FC0009DF80730022BF7D80C4A02A9304632F9B7
:100FD000135000F09DFB0028EED1BDF9083093FBC3
:100FE000F5F32380BDF90A3093FBF5F36380BDF977
:100FF0000C3093FBF5F3A380E0E700BF289C0008CA
:10100000F2EE047AB4EEE70AF1EE10FA08B517D959
:10101000F3EE047AB4EEE70AF1EE10FA12D9DFED3E
:101020000A7AB4EEE70AF1EE10FA94BF0221032126
:101030001C3000F088FB003018BF0120404208BD82
:101040000021F5E70121F3E70000484238B500F13F
:101050001C0405460121204600F099FB10B14FF019
:10106000FF3038BD0221204600F057FB0028F6D1A2
:101070000321204600F067FB01460028EFD12046FF
:1010800000F0AAFB0028EAD1012385F8283038BDFA
:1010900008B51C3000F09BFB003018BF0120404217
:1010A00008BD000013B50C461C300DF1070100F01F
:1010B00060FB88B99DF80730032B0DD8DFE803F0FB
:1010C0000206080A064B236002B010BD054BFAE782
:1010D000054BF8E7054BF6E74FF0FF30F4E700BFAC
:1010E000000020410000A041000048420000C8422A
:1010F00013B50C461C30694600F05FFB50B9BDF8D3
:1011000000302380BDF802306380BDF80430A38036
:1011100002B010BD4FF0FF30FAE713B50C461C309B
:10112000694600F04AFB38BBBDF9003007EE103AC3
:10113000B8EEC77AF7EE086A27EE267ABDF90230D4
:10114000BDEEC77A84ED007A07EE103ABDF904309F
:1011500007EE903AB8EEC77AF8EEE77A27EE267AED
:1011600067EEA67ABDEEC77AFDEEE77A84ED017AE6
:10117000C4ED027A02B010BD4FF0FF30FAE7000074
:1011800008B590F82910F7EE007A0129B4EEE70AC5
:1011900037D1F1EE10FA24D9F2EE047AB4EEE70A70
:1011A000F1EE10FA25D9F3EE097AB4EEE70AF1EE82
:1011B00010FA20D9DFED2E7AB4EEE70AF1EE10FA3C
:1011C0001BD9DFED2C7AB4EEE70AF1EE10FA16D94E
:1011D000DFED297AB4EEE70AF1EE10FA94BF0621AA
:1011E00007211C3000F036FA003018BF01204042C1
:1011F00008BD0221F5E70321F3E70421F1E705210A
:10120000EFE7F1EE10FA28D9F2EE047AB4EEE70A2D
:10121000F1EE10FA23D9F3EE097AB4EEE70AF1EE13
:1012200010FA1ED9DFED127AB4EEE70AF1EE10FAE9
:1012300019D9DFED107AB4EEE70AF1EE10FA14D9FD
:10124000DFED0D7AB4EEE70AF1EE10FA94BF062353
:10125000072380F82A30002008BD0123F9E7022384
:10126000F7E70323F5E70423F3E70523F1E700BFDE
:10127000000048420000C8420000484330B4044621
:1012800085686469007B25B941F08001A44630BCC3
:10129000604741F04001F9E730B4044685682469AD
:1012A000007B25B941F08001A44630BC604741F085
:1012B0004001F9E730B4044685686469007B25B9CC
:1012C00041F08001A44630BC604741F04001F9E79D
:1012D00030B4044685682469007B25B941F080015B
:1012E000A44630BC604741F04001F9E710B590F8E2
:1012F0002930012B044609D090F82A101C3000F048
:10130000A9F928B9012384F8293010BD002010BDA7
:101310004FF0FF3010BD38B5044690F8290090B169
:1013200004F11C0504F12A01284600F0A9F9014640
:1013300010B14FF0FF3038BD284600F08BF900287F
:10134000F7D184F8290038BD10B50446FFF7E3FF54
:1013500020B984F8280084F82A0010BD4FF0FF302F
:1013600010BD000037B500F11C050C4628460DF1F4
:10137000060100F04FF930B99DF80630012B1CD062
:1013800004D3022B2ED04FF0FF3010E00DF10701F7
:10139000284600F099F90028F5D19DF80730032B75
:1013A000F1D8DFE803F0020619081A4B236003B0F6
:1013B00030BD194BFAE7194BF8E70DF10701284644
:1013C00000F082F90028DED19DF80730032BDAD82F
:1013D000DFE803F002041706114BE7E7114BE5E7DE
:1013E000114BE3E70DF10701284600F06DF90028E5
:1013F000C9D19DF80730032BC5D8DFE803F00204FC
:1014000006080A4BD2E70A4BD0E70A4BCEE70A4B55
:10141000CCE700BF48E17A3F9A99F93F1F853B41ED
:101420009A997940713DFA409A993B427B147A41EE
:101430007B14FA417B147A427B943B4330B585B0F0
:101440000C46002302A905460193FFF7ABFD18B136
:101450004FF0FF3005B030BD01A92846FFF782FFED
:101460000028F5D1BDF90830DDED016A07EE103A2C
:10147000B8EEC77ABDF90A3027EE267ABDEEC77AF4
:1014800084ED007A07EE103ABDF90C3007EE903A81
:10149000B8EEC77AF8EEE77A27EE267A67EEA67AF4
:1014A000BDEEC77AFDEEE77A84ED017AC4ED027AEB
:1014B000D0E710B590F82930012B044608D0002160
:1014C0001C3000F02AF928B9012384F8293010BD16
:1014D000002010BD4FF0FF3010BD10B5044690F84D
:1014E000290050B1022104F11C0000F016F910B9D6
:1014F00084F8290010BD4FF0FF3010BD10B5044630
:10150000FFF7EBFF10B984F8280010BD4FF0FF3053
:1015100010BD13B502AC012304F8012D1C30224686
:1015200000F071F8003018BF0120404202B010BD39
:1015300010B5044610B94FF0FF3010BD4A680B6873
:1015400042608A68036082600A7B02730A690261F2
:101550004A6942618A6982610C4A02620C4AC2612C
:101560006062002BE7D098470028E4D1A268012AE6
:101570000AD194F828303BB923212046FFF7C9FF50
:10158000003018BF0120404210BD00BF7D1200088E
:101590009912000810B5044610B94FF0FF3010BD85
:1015A0004A680B6842608A68036082600A7B027343
:1015B0000A6902614A6942618A6982610C4A02626F
:1015C0000C4AC2616062002BE7D098470028E4D142
:1015D000A3685BB194F8283043B9012104F11C00E1
:1015E00000F026F9003018BF0120404210BD00BFB6
:1015F000B5120008D112000810B444688068A446EF
:101600005DF8044B604710B404688068A4465DF838
:10161000044B6047F7B5012301AA0D462021074678
:10162000FFF7EAFF9DF80440C4F3C004E6B20123CB
:1016300001AA23213846FFF7DFFF16B102232B70E2
:1016400004E09DF804301B0702D52C7003B0F0BDF8
:101650000123F4E737B501230D4601AA20210446F2
:10166000FFF7CAFF9DF8043065F307138DF80430C7
:1016700001AA012320212046FFF7C5FF03B030BD9A
:1016800013B501230C4601AA2021FFF7B5FF9DF8F1
:101690000430C3F30313237002B010BD37B5012328
:1016A0000D4601AA23210446FFF7A6FF9DF804304A
:1016B00065F305138DF8043001AA01232321204688
:1016C000FFF7A1FF03B030BD13B501230C4601AAFB
:1016D0002321FFF791FF9DF80430C3F3011323701A
:1016E00002B010BD37B501230D4601AA23210446DF
:1016F000FFF782FF9DF8043065F3C7138DF80430BF
:1017000001AA012323212046FFF77DFF03B030BD4E
:101710000A4606232821FFF76FBF37B501230D4680
:1017200001AA60210446FFF767FF9DF8043065F3C6
:1017300001038DF8043001AA012360212046FFF740
:1017400062FF03B030BD37B501230D4601AA602109
:101750000446FFF751FF9DF8043065F383038DF8CD
:10176000043001AA012360212046FFF74CFF03B09B
:1017700030BD13B501230C4601AA6021FFF73CFFE1
:101780009DF80430C3F38103237002B010BD37B558
:1017900001230D4601AA62210446FFF72DFF9DF8A3
:1017A000043065F304138DF8043001AA012362218B
:1017B0002046FFF728FF03B030BD0A460623682104
:1017C000FFF71ABF0A4601230F21FFF715BF0A468C
:1017D00001234F21FFF710BF37B501230D4601AAA2
:1017E00062210446FFF708FF9DF8043065F34103CA
:1017F0008DF8043001AA012362212046FFF703FF80
:1018000003B030BD37B501230D4601AA2E21044691
:10181000FFF7F2FE9DF8043065F387138DF804306E
:1018200001AA01232E212046FFF7EDFE03B030BDB3
:1018300037B501230D4601AA62210446FFF7DCFEFD
:101840009DF8043065F345138DF8043001AA012397
:1018500062212046FFF7D7FE03B030BD01230B7095
:101860004B704FF4FA634B6010238B60044B0B6199
:1018700000204B6100238870C870C8608B6170477E
:101880000020D04510B44469007BA4465DF8044BA9
:10189000604710B40469007BA4465DF8044B6047C0
:1018A000022908B50DDD04290DDD0929B4BF032186
:1018B00001211C3000F05EFC003018BF01204042C6
:1018C00008BD0021F5E70221F3E770B500F11C0423
:1018D00005460121204600F06BFD10B14FF0FF30AE
:1018E00070BD0121204600F03DFD01460028F5D1E4
:1018F000204600F074FD01460028EFD1042685F84B
:101900002B60204600F06AFC01460028E6D1204604
:1019100000F030FC01460028E0D185F82C6020461C
:1019200000F0DBFC0028D9D10621204600F09DFC08
:101930000028D3D1012385F8283070BD7D2908B552
:1019400011DDFA2911DDB1F5FA7F10DDB1F57A7FED
:10195000D4BF042106211C3000F087FC003018BFE2
:101960000120404208BD0121F5E70021F3E70221F3
:10197000F1E708B51C3000F016FD003018BF01205B
:10198000404208BD13B50C461C300DF1070100F0B4
:101990003CFC28BB9DF807300B2B21D8DFE803F077
:1019A000060C0E10121416181A1C1E0A00232360AF
:1019B00002B010BD0C4BFAE70C4BF8E70C4BF6E706
:1019C0000C4BF4E70C4BF2E70C4BF0E70C4BEEE75B
:1019D0000C4BECE70C4BEAE70C4BE8E70C4BE6E76B
:1019E0004FF0FF30E4E700BFCDCCCC3F00004841D2
:1019F0000000D041000050420000D042000050439F
:101A00000000D043004050440080CF4400205045A7
:101A10000020D04513B50C461C300DF1070100F035
:101A2000C0FB88B99DF80730032B0DD8DFE803F021
:101A3000020A0608064B236002B010BD054BFAE708
:101A4000054BF8E7054BF6E74FF0FF30F4E700BF32
:101A500023DB793D23DBF93D23DB793E23DBF93EB4
:101A600013B50C461C300DF1070100F09AFB88B944
:101A70009DF80730032B0DD8DFE803F0020A0608B3
:101A80000223236002B010BD0423FAE70823F8E71D
:101A90001023F6E74FF0FF30F4E713B50C461C3087
:101AA000694600F07BFC50B9BDF800302380BDF8DA
:101AB00002306380BDF80430A38002B010BD4FF047
:101AC000FF30FAE730B585B005460C46002302A981
:101AD0001C30019300F062FC18B14FF0FF3005B0EC
:101AE00030BD01A92846FFF795FF0028F5D1BDF9C3
:101AF0000830DDED016A07EE103AB8EEC77ABDF99D
:101B00000A3027EE267ABDEEC77A84ED007A07EE1A
:101B1000103ABDF90C3007EE903AB8EEC77AF8EEFD
:101B2000E77A27EE267A67EEA67ABDEEC77AFDEE53
:101B3000E77A84ED017AC4ED027AD0E713B50C465A
:101B40001C300DF1070100F0DFFB18BB9DF80730DA
:101B50000A2B1FD8DFE803F0060A0C0E1012141629
:101B6000181A1C000023236002B010BD0B4BFAE7CB
:101B70000B4BF8E70B4BF6E70B4BF4E70B4BF2E79D
:101B80000B4BF0E70B4BEEE70B4BECE70B4BEAE7AD
:101B90000B4BE8E74FF0FF30E6E700BF000048419D
:101BA0000000D041000050420000D04200005043ED
:101BB0000000D043004050440080CF4400205045F6
:101BC0000020D04513B50C461C300DF1070100F084
:101BD00063FBA8B99DF80730062B11D8DFE803F0A6
:101BE00008040A100C100E00074B236002B010BD51
:101BF000064BFAE7064BF8E7064BF6E7064BF4E729
:101C00004FF0FF30F2E700BF00008C4000000C41B5
:101C100000008C4100000C4200008C4213B50C46C1
:101C20001C300DF1070100F037FBC0B99DF80730FB
:101C3000062B14D8DFE803F008040A130D13100074
:101C40007D23236002B010BDFA23FAE74FF4FA7344
:101C5000F7E74FF47A73F4E74FF4FA63F1E74FF0E4
:101C6000FF30EFE713B50C461C30694600F091FBDE
:101C700050B9BDF800302380BDF802306380BDF854
:101C80000430A38002B010BD4FF0FF30FAE730B54A
:101C900085B005460C461C3002A900F07AFB18B14D
:101CA0004FF0FF3005B030BD01A92846FFF78AFF8D
:101CB0000028F5D1BDF90830DDED016A07EE103AD4
:101CC000B8EEC77ABDF90A3027EE267ABDEEC77A9C
:101CD00084ED007A07EE103ABDF90C3007EE903A29
:101CE000B8EEC77AF8EEE77A27EE267A67EEA67A9C
:101CF000BDEEC77AFDEEE77A84ED017AC4ED027A93
:101D0000D0E7000008B590F82910F2EE097A012911
:101D1000B4EEE70A52D1F1EE10FA39D9F3EE0A7AAD
:101D2000B4EEE70AF1EE10FA3AD9DFED4D7AB4EEEF
:101D3000E70AF1EE10FA35D9DFED4A7AB4EEE70A98
:101D4000F1EE10FA30D9DFED487AB4EEE70AF1EEA1
:101D500010FA2BD9DFED457AB4EEE70AF1EE10FA6E
:101D600026D9DFED437AB4EEE70AF1EE10FA21D975
:101D7000DFED407AB4EEE70AF1EE10FA1CD9DFEDA0
:101D80003E7AB4EEE70AF1EE10FA94BF09210A2177
:101D90001C3000F023FA003018BF0120404208BD7B
:101DA0000221F5E70321F3E70421F1E70521EFE73D
:101DB0000621EDE70721EBE70821E9E7F1EE10FA4C
:101DC0003DD9F3EE0A7AB4EEE70AF1EE10FA38D90B
:101DD000DFED237AB4EEE70AF1EE10FA33D9DFED46
:101DE000217AB4EEE70AF1EE10FA2ED9DFED1E7A71
:101DF000B4EEE70AF1EE10FA29D9DFED1C7AB4EE61
:101E0000E70AF1EE10FA24D9DFED197AB4EEE70A09
:101E1000F1EE10FA1FD9DFED177AB4EEE70AF1EE12
:101E200010FA1AD9DFED147AB4EEE70AF1EE10FADF
:101E300094BF09230A2380F82B30002008BD01231A
:101E4000F9E70223F7E70323F5E70423F3E7052384
:101E5000F1E70623EFE70723EDE70823EBE700BFF1
:101E6000000050420000D042000050430000D04328
:101E7000004050440080CF440020504508B590F801
:101E80002A10F2EE097A0129B4EEE70A52D1F1EEF6
:101E900010FA39D9F3EE0A7AB4EEE70AF1EE10FA45
:101EA0003AD9DFED4D7AB4EEE70AF1EE10FA35D902
:101EB000DFED4A7AB4EEE70AF1EE10FA30D9DFED41
:101EC000487AB4EEE70AF1EE10FA2BD9DFED457A45
:101ED000B4EEE70AF1EE10FA26D9DFED437AB4EE5C
:101EE000E70AF1EE10FA21D9DFED407AB4EEE70A05
:101EF000F1EE10FA1CD9DFED3E7AB4EEE70AF1EE0E
:101F000010FA94BF09210A211C3000F0E6F90030D4
:101F100018BF0120404208BD0221F5E70321F3E785
:101F20000421F1E70521EFE70621EDE70721EBE7C3
:101F30000821E9E7F1EE10FA3DD9F3EE0A7AB4EEA2
:101F4000E70AF1EE10FA38D9DFED237AB4EEE70AAA
:101F5000F1EE10FA33D9DFED217AB4EEE70AF1EEB3
:101F600010FA2ED9DFED1E7AB4EEE70AF1EE10FA80
:101F700029D9DFED1C7AB4EEE70AF1EE10FA24D984
:101F8000DFED197AB4EEE70AF1EE10FA1FD9DFEDB2
:101F9000177AB4EEE70AF1EE10FA1AD9DFED147AE7
:101FA000B4EEE70AF1EE10FA94BF09230A2380F891
:101FB0002C30002008BD0123F9E70223F7E70323B3
:101FC000F5E70423F3E70523F1E70623EFE707230B
:101FD000EDE70823EBE700BF000050420000D042CD
:101FE000000050430000D043004050440080CF44E4
:101FF0000020504510B590F82930012B044609D037
:1020000090F82B101C3000F0E9F828B9012384F86F
:10201000293010BD002010BD4FF0FF3010BD10B5AD
:1020200090F82A30012B044609D090F82C101C306F
:1020300000F053F928B9012384F82A3010BD00209C
:1020400010BD4FF0FF3010BD38B5044690F82900A0
:1020500090B104F11C0504F12B01284600F0D5F8DD
:10206000014610B14FF0FF3038BD284600F0B6F8F9
:102070000028F7D184F8290038BD38B5044690F817
:102080002A0090B104F11C0504F12C01284600F04F
:102090003BF9014610B14FF0FF3038BD284600F043
:1020A0001CF90028F7D184F82A0038BD10B5044681
:1020B000FFF7CAFF10B14FF0FF3010BD2046FFF709
:1020C000DCFF0028F7D184F8280084F82B0084F87E
:1020D0002C0010BD13B502AC012304F8012D1C30F7
:1020E000224600F040F8003018BF0120404202B004
:1020F00010BD000010B5044610B94FF0FF3010BD00
:102100004A680B6842608A68036082600A7B0273D7
:102110000A6902614A6942618A6982610C4A026203
:102120000C4AC2616062002BE7D098470028E4D1D6
:10213000A368022B0BD194F8283043B90C2212214A
:102140002046FFF7C7FF003018BF0120404210BDF6
:10215000851800089318000810B444688068A446E5
:102160005DF8044B604710B404688068A4465DF8CD
:10217000044B604737B501230D4601AA10210446E0
:10218000FFF7EAFF58B99DF8043065F383038DF833
:10219000043001AA012310212046FFF7E4FF03B019
:1021A00030BD13B501230C4601AA1021FFF7D4FF5F
:1021B0009DF80430C3F38103032B0DD8DFE803F04F
:1021C0000206080A0023237002B010BD0123FAE7BB
:1021D0000223F8E70323F6E70423F4E737B50123E6
:1021E0000D4601AA10210446FFF7B6FF58B99DF825
:1021F000043065F307138DF8043001AA0123102180
:102200002046FFF7B0FF03B030BD13B501230C46E5
:1022100001AA1021FFF7A0FF9DF804301B090B2B2A
:1022200021D8DFE803F0060A0C0E10121416181A53
:102230001C1E0023237002B010BD0123FAE7022305
:10224000F8E70323F6E70423F4E70523F2E7062380
:10225000F0E70723EEE70823ECE70923EAE70A2380
:10226000E8E70B23E6E70C23E4E737B501230D4647
:1022700001AA11210446FFF76FFF58B99DF80430F9
:1022800065F343038DF8043001AA01231121204690
:10229000FFF769FF03B030BD13B501230C4601AA57
:1022A0001121FFF759FF9DF80430C3F34203062BB9
:1022B00011D8DFE803F004080A100C100E00002308
:1022C000237002B010BD0123FAE70223F8E70423CC
:1022D000F6E70623F4E70723F2E737B501230D46B7
:1022E00001AA11210446FFF737FF58B99DF80430C1
:1022F00065F307138DF8043001AA0123112120464C
:10230000FFF731FF03B030BD13B501230C4601AA1E
:102310001121FFF721FF9DF804301B090A2B1FD85C
:10232000DFE803F0060A0C0E10121416181A1C002F
:102330000023237002B010BD0123FAE70223F8E75F
:102340000323F6E70423F4E70523F2E70623F0E787
:102350000723EEE70823ECE70923EAE70A23E8E787
:102360000B23E6E737B501230D4601AA12210446E7
:10237000FFF7F2FE58B99DF8043065F386138DF827
:10238000043001AA012312212046FFF7ECFE03B01E
:1023900030BD0A4606232221FFF7DEBE0A46062389
:1023A0002821FFF7D9BE0A4601230F21FFF7D4BE2B
:1023B00037B501230D4601AA12210446FFF7CCFED2
:1023C00058B99DF8043065F382038DF8043001AAF2
:1023D000012312212046FFF7C6FE03B030BD37B5FA
:1023E00001230D4601AA0A210446FFF7B5FE58B99C
:1023F0009DF8043065F302038DF8043001AA01232F
:102400000A212046FFF7AFFE03B030BDF020704731
:1024100030B5EF28114C8ABF002520802580EF2998
:102420000F4C8ABF0025218025801418F02C0D4CFC
:10243000D5BF02F1FF32EF228018228003EB0102A8
:10244000D8BF2080F02AD8BF03F1FF33064AD5BF9A
:10245000C918EF231180138030BD00BFC0010020D8
:10246000C2010020F8000020FA000020F020704790
:1024700070B50C46164600F079FB013E651E3444EB
:10248000A54200D170BD15F8010F00F069FBF7E718
:10249000012837B5054609D10023012269463620B7
:1024A0008DF80030FFF7E4FF03B030BD02281FD1E4
:1024B000012300248DF802300622F02369463320E0
:1024C0008DF803308DF800408DF801408DF8044000
:1024D0008DF80540FFF7CCFF50232A466946372088
:1024E0008DF801308DF80040FFF7C2FFC023D4E71C
:1024F0006023D2E708B5002211462920FFF7B8FF74
:10250000002211461120BDE80840FFF7B1BF2DE9B8
:10251000F04F85B000F08CFA002211461020FFF732
:10252000A7FF0A2000F02DFB002211460120FFF733
:102530009FFFC82000F025FB002204AC11461120AB
:102540000025FFF795FF782000F01BFB04F8105DD5
:10255000012221463620FFF78BFF05262146012266
:102560003A208DF80060FFF783FF2A462946212094
:10257000FFF77EFFEF27214604222A208DF8037003
:102580008DF800508DF801508DF80250FFF770FF64
:10259000214604222B204FF00C094FF033088DF810
:1025A00003708DF800508DF801508DF80250FFF740
:1025B0005FFF32462146B2208DF800908DF80190E1
:1025C0008DF803808DF804804FF0350A8DF80250A5
:1025D000FFF74EFF21460122B7208DF800A0FFF73C
:1025E00047FF1F2321460122BB208DF80030FFF753
:1025F0003FFF2C2321460122C02001268DF8003008
:10260000FFF736FFC32321460222C2208DF8013096
:102610008DF80060FFF72CFF202332462146C420AE
:102620008DF80030FFF724FF0F2332462146C620E5
:102630008DF80030FFF71CFFA4238DF800303246E0
:10264000A1232146D0208DF80130FFF711FF11237F
:102650008DF8023015238DF8053050238DF80830A1
:1026600036238DF8093013238DF80A3029230827E3
:102670004FF0D00B8DF804908DF807804FF039099A
:102680004FF014088DF80C3021462D230E22E02047
:102690008DF80D308DF800B08DF801708DF8037055
:1026A0008DF806908DF80B80FFF7E2FE10238DF871
:1026B000023006238DF804308DF8053044238DF860
:1026C000073051238DF808300B238DF8093016237D
:1026D0008DF80A302F2321468DF80C300E2231233D
:1026E000E1208DF80D308DF800B08DF801708DF877
:1026F00003708DF806908DF80B80FFF7B9FEFFF799
:10270000F9FE3246214650468DF80050FFF7B0FEE4
:1027100005B0BDE8F08F07B502A9FE2301F8043D1E
:102720000122BD20FFF7A4FE002211461020FFF772
:102730009FFE0A2000F025FA03B05DF804FB37B5D0
:10274000C0B28DF805000422113800250C468DF822
:1027500007000DEB02012A208DF804508DF8065079
:10276000FFF786FEE1B28DF80510042211398DF8CD
:1027700007102B200DEB02018DF804508DF8065048
:10278000FFF776FE03B030BD10B51446FFF7D7FF54
:1027900000222C201146FFF76BFE2046BDE81040BA
:1027A00000F0DEB938B504460D46FFF7C8FF2946EC
:1027B0002046FFF7C4FF002211462E20FFF758FEE7
:1027C00000F0DAF900F0D8F9044600F0D5F9C4F3C6
:1027D0008503C0F3C42000EB431004F47844204484
:1027E00080B238BD70B50646084611461D46FFF753
:1027F000A6FF002211462C20FFF73AFE0024AC422F
:1028000000D170BD304600F0ABF90134F7E7F8B500
:102810000E4607461146304614461D46FFF78FFF09
:10282000002211462C20FFF723FE2544ADB2AC4216
:1028300000D1F8BD21463A4630460134FFF7A4FFE7
:10284000A4B2F4E72DE9F74F9046002206460F4662
:102850002C2011469946DFF858A0DFF858B0FFF752
:1028600007FE114A3446002508EB06039C4202D3BA
:1028700003B0BDE8F08FBAF800309C4211D3BBF82A
:102880000030BB420DD813889C420AD8074B1B88E6
:10289000BB4206D339F81500019200F061F9019AA4
:1028A00001350134E0E700BFF8000020FA00002005
:1028B000C0010020C2010020194B2DE9F0471D88FE
:1028C000184B0E461B8818490746013517480988DA
:1028D0000088ED1A53889388B2F80A8093891FFA0A
:1028E00088F80131ADB2091A48EA034816FA81F1B5
:1028F0004FEA45099044B14201D8BDE8F0874C1E2B
:102900001FFA84FA51463846FFF719FF43465146ED
:102910002A463846FFF796FFC8442146EBE700BF3A
:10292000F8000020C0010020FA000020C2010020B1
:102930002DE9F047089D064617460C464FEA420A25
:1029400001EB03094C4501D3BDE8F0871FFA84F879
:1029500041463046FFF7F3FE2B463A4641463046A5
:10296000FFF770FF01345544ECE708B500F0FEF8BE
:1029700000F002F900F000F9C0B208BD08B500F09F
:1029800057F80420FFF7F1FF08BD000000B589B03B
:10299000E0B9164B01901A6B42F004021A631B6BEC
:1029A00003F004030193019B114B53F82030039370
:1029B000012304930593032306930E4B03A953F8B5
:1029C000200000F02DFE09B05DF804FB0128EBD1DA
:1029D00000230293054B1A6B42F010021A631B6B23
:1029E00003F010030293029BDEE700BF00380240B1
:1029F000309C0008FC000020044B33F82010044BEE
:102A0000012253F8200000F079BF00BF309C00087D
:102A1000FC000020044B33F82010044B002253F834
:102A2000200000F06BBF00BF309C0008FC000020BD
:102A30002DE9F041A0B00024444B00949A6B444827
:102A400042F001029A639A6B02F001020092009A2E
:102A500001941A6B42F008021A631A6B02F0080222
:102A60000192019A02941A6B42F010021A631A6BD7
:102A700002F010020292029A03941A6B42F02002B2
:102A80001A631A6B02F020020392039A04941A6BE1
:102A900042F040021A631B6B03F04003049320AD25
:102AA00002260127049B0D960C230E9710934DF6DA
:102AB000B37345F8503D4FF003082946CDF83C80EC
:102AC00000F0AEFD4FF68073294622480C9300F0CB
:102AD000A7FD4FF23F0329461F480C9300F0A0FDCD
:102AE00040F23F4329461D480C9300F099FD4FF0FA
:102AF00020430C9303F582730D93042307930E93E5
:102B0000102311934FF48053169305AA4FF480437A
:102B1000189311464FF400132846CDF814800697F9
:102B2000089709960A960B940F9410941294139494
:102B300014941594179419941A941C931D941B942F
:102B400002F0B0FE20B0BDE8F08100BF00380240C6
:102B5000000C024000100240001402400018024025
:102B60004FF0D0435880BFF34F8F70474FF0D043A2
:102B70001880BFF34F8F70474FF0D043588880B212
:102B8000704700F01BBA000008B5024B1B689B6A37
:102B9000984708BDC401002008B5024B1B68DB6ADA
:102BA000984708BDC4010020014B1860704700BF62
:102BB000E0020020014B5860704700BFE002002097
:102BC000014B9860704700BFE0020020024B1B6879
:102BD0005B6903B118477047C40100202DE9F04F2D
:102BE000274B85B0A2F12004029199680190B1F8B9
:102BF00004B0B1F806A00A680BF10706F6100AFB4C
:102C000004F4CBEBC60006FB04240BF1FF3252FAAE
:102C100080F34FF000080393029BD04503EB0809B3
:102C20001FFA89F902D305B0BDE8F08F012E09D053
:102C3000022E0FD0657822782D0245EA0245A2784F
:102C4000154300E025780027BB4508D808F10108A6
:102C50003444E1E72278657845EA0225F3E7039BEF
:102C6000D91B019B01228A40D819054B2A4214BF67
:102C70001A889A88494680B2FFF7A8FF0137E3E730
:102C8000E00200202DE9F04704460E46154699461D
:102C9000A2EB050812F8013B002BF9D1214FFFF7F9
:102CA00073FFBB68B9F1010F9A88B0FBF2F020D036
:102CB000B9F1020F24D023B2002BD8BF0124A946BA
:102CC00099F800A01AF1000A18BF4FF0010AFFF7A7
:102CD0005BFFBB68A9EB05089B881FFA88F803FB1C
:102CE000180080B2984202D3BAF1000F0ED1BDE8AD
:102CF000F087A0EB0800504304EB5004A4B2DAE7DD
:102D0000A0EB080010FB02F0041BF7E7204619F8BF
:102D1000012B3146FFF762FFBB689B881C44A4B2BD
:102D2000CEE700BFE0020020104B1B682DE9F04108
:102D30001C6A05460E46174674B9DFF83480BC425B
:102D400001D3BDE8F0812819B8F80020314680B2DF
:102D5000FFF73CFF0134F2E713460A4601460448F8
:102D6000A4460088BDE8F041604700BFC4010020D0
:102D7000E0020020F8B50A4C26682060FFF70CFF3F
:102D800000250746BD4202D1B6B22660F8BDFFF766
:102D9000FBFEA9B282B20020FFF7C6FF0135F1E7C2
:102DA000E00200202DE9F0411746094A88461188C3
:102DB000116006465D1C002408EB04013A4689B206
:102DC00030460134FFF7B0FFAC42F5D1BDE8F081E9
:102DD000E002002070B588B01E4B1F4E0024009406
:102DE0001A6B42F002021A631A6B02F0020200929E
:102DF000009A01941A6B42F002021A631A6B02F0F5
:102E000002020192019A02941A6B42F010021A63B4
:102E10001B6B059403F010030293029B4FF40053C5
:102E200003930125022303A930460693049500F07D
:102E3000F7FB4FF4804303A930460393049400F05A
:102E4000EFFB202303A905480393049500F0E8FB5A
:102E500008B070BD0038024000040240001002407B
:102E600070B5254C4FF6FF7300266360234BA360BB
:102E700005462660FFF7AEFF01222021204800F022
:102E80003DFD32464FF400511E4800F037FD05204D
:102E900000F094F801224FF400511A4800F02EFD82
:102EA0000A2000F08BF832464FF400511548164EB8
:102EB00000F024FD142000F081F801224FF40051AD
:102EC000104800F01BFD0A2000F078F8736898475E
:102ED00085280ED10D4B1E60336898471DB92846D2
:102EE000FFF7D6FA01E0022DF9D0094BA3600020CC
:102EF00070BD012070BD00BFE00200200C01002069
:102F00000010024000040240C0000020C401002064
:102F1000040100200120FFF7A3BF000038B50E4ACE
:102F20000E4B054618784FF47A73B3FBF0F3106834
:102F3000B0FBF3F000F0E2F9044658B90F2D09D8C0
:102F4000024629464FF0FF3000F098F9044B204626
:102F50001D6038BD012038BD3C0100201401002057
:102F60001801002008B50B4B1A6842F400721A6071
:102F70001A6842F480621A601A6842F480721A6019
:102F8000032000F069F90020FFF7C8FF05F0F6F80C
:102F9000002008BD003C0240034A044B11681B7826
:102FA0000B441360704700BFEC02002014010020A6
:102FB000014B1868704700BFEC02002038B504468A
:102FC000FFF7F6FF631C1CBF054B1B78054618BFB7
:102FD000E418FFF7EDFF401B8442FAD838BD00BF6C
:102FE0001401002010B50446002800F09980036CFD
:102FF00023B9436480F83C3005F0DCF8236CDB0631
:1030000000F18C80236C23F4885323F0020343F0F7
:1030100002032364434B5A6822F440325A605A68D0
:1030200061680A435A60236821695A6822F48072F1
:103030005A605A6842EA01225A605A68A16822F02E
:1030400040725A605A680A435A609A68E16822F4EA
:1030500000629A609A680A439A603349A26A8A4277
:1030600050D0996821F07061996099680A439A601C
:103070009A68E16A22F040529A609A680A439A601C
:103080009A68A16922F002029A609A6842EA4102B3
:103090009A60226A002A3DD05A68616A42F400624E
:1030A0005A605A6822F460425A605A68013942EA0A
:1030B00041325A60DA6AE16922F47002DA62DA6A4D
:1030C000013942EA0152DA629A68216B22F40072F5
:1030D0009A609A6842EA41229A609A68616922F489
:1030E00080629A609A68002042EA81229A60606455
:1030F000236C23F0030343F001032364002384F8CB
:103100003C3010BD9A6822F070629A609A6822F092
:103110004052B4E75A6822F40062CAE70120EDE7A2
:10312000012010BD002301400100000FF7B500236E
:10313000019390F83C30012B00F083800D68046807
:103140008A680123092D80F83C30AEB22AD906EBFB
:103150004603E7681E3B4FF0070E0EFA03FE27EA10
:103160000E07E760E76802FA03F33B43E3604A684F
:10317000062A4FEA820325D81344676B591F1F2381
:103180008B4027EA03036363626B06FA01F1114384
:1031900061632D4B9C4234D0002380F83C301846AC
:1031A00003B0F0BD276905EB45034FF0070E0EFA9B
:1031B00003FE27EA0E072761276902FA03F33B4360
:1031C0002361D4E70C2A0ED81344216BA3F1230208
:1031D0001F23934021EA03032363236B06FA02F2C1
:1031E0001A432263D5E71344E16A413B1F229A4008
:1031F00021EA0202E262E26A06FA03F11143E162A5
:10320000C7E7122D04D1114A536843F48003536079
:10321000A5F11103012BBFD80C4A5368122D43F4BA
:1032200000035360B8D10A4B0A4A1B68B3FBF2F2A1
:103230000A2353430193019B002BADD0019B013B1B
:10324000F8E70220ACE700BF002001400023014066
:103250003C01002040420F00074AD36823F4E0639A
:103260001B041B0C43F0BF63000243F4003300F463
:10327000E0600343D360704700ED00E0174B30B5CA
:10328000DC68C4F30224C4F10703251D042B28BF06
:103290000423062D4FF0010505FA03F303F1FF3374
:1032A0008CBF033C00241940A14005FA04F4013C02
:1032B0002240002842EA01024FEA0212AFBF00F1A9
:1032C000604000F00F00064BD2B2A5BF00F5614090
:1032D000D2B21A5480F8002330BD00BF00ED00E0E8
:1032E00014ED00E04209012300F01F0003FA00F092
:1032F000014B43F82200704700E100E00138B0F1D3
:10330000807F0AD2064B074A5860F02182F82310CA
:103310000020072298601A6070470120704700BFA4
:1033200010E000E000ED00E010B5044668B103795C
:1033300003F0FF0213B9427104F096FF02232371D8
:10334000002001232061237110BD012010BD4379AD
:10335000012B30B54FF0020317D0046803712368C6
:1033600040F6FE75954023EA05050AC90B439340D4
:103370002B4323602368C02101FA02F223EA0202F0
:1033800001232260037100234371184630BD000001
:103390001D4B98422AD003F58063984226D0A3F5AE
:1033A0007873984224D003F58063984220D0A3F527
:1033B000787398421ED003F5806398421AD0A3F523
:1033C0007873984218D003F58063984214D0203364
:1033D000984213D02033984212D02033984211D013
:1033E0002033984214BFFF20072070470020704709
:1033F0000120704702207047032070470420704767
:10340000052070470620704700600140F8B504466B
:1034100000287FD00068404DA84277D03F4B9842AB
:1034200075D02033984272D02033984203F56873E8
:1034300018BF1D463A4B3B4F3B4E08BF1F463B4B08
:1034400008BF1E46FFF7A4FF57F82030002B61D1BC
:10345000204604F03BFF3368013333603368012BAF
:1034600018D12B68A26823F080432B602B6813438C
:103470002B602B6823F47F032B602379012B05D16C
:10348000E2682B68013A43EA02432B602B6843F061
:1034900000432B6020686169036823F47143036073
:1034A000236902680B43A1690B431343036003685C
:1034B000216A23F00F030360E36902680B4313439F
:1034C00003608368616AA26A23F45F038360836890
:1034D000013A0B4343EA024383604368226B03F0E3
:1034E00007034360436843EAC203E26A43EA0223F4
:1034F0004360036843F080030360012384F83430A1
:10350000FFF746FF47F820400020F8BD0546044F6E
:10351000064E97E70120F8BD0060014020600140A1
:10352000C8010020D8010020FC010020F801002083
:1035300010B5044600284AD090F8413003F0FF024D
:103540001BB980F8402004F079FF242384F841302F
:103550002368E1681A6822F001021A60626822F0AA
:1035600070621A619A68012922F400429A60A26886
:1035700024D142F400429A605A68616942F00072B4
:1035800042F400425A60DA6822F40042DA602269AA
:103590000A43A16942EA0122DA60216AE2690A4328
:1035A0001A601A6842F001021A6000202023606449
:1035B00084F84130206384F8420010BD42F4044294
:1035C00002299A6004BF4FF400625A60D4E70120D8
:1035D00010BD90F84120D2B2202A10B51DD190F82C
:1035E0004030012B19D0242380F8413003681C6837
:1035F00024F001041C601C6824F480541C601C68C6
:1036000021431960196841F001011960002380F815
:10361000412080F84030184610BD022010BD000047
:103620002DE9F04F85B00B68DFF8A081654ADFF81F
:10363000A091019300234FF0010E019C0EFA03FEAE
:103640000EEA0406B64540F0AA804C6824F0100744
:10365000022F16D14FEAD30A00EB8A0A03F0070BB8
:10366000DAF820504FEA8B0B4FF00F0C0CFA0BFCE2
:1036700025EA0C0C0D6905FA0BF545EA0C05CAF8AC
:1036800020504FEA430A0325D0F800B005FA0AF5A6
:10369000ED4304F0030C0BEA050B0CFA0AFC013FA6
:1036A0004CEA0B0C012FC0F800C011D8876807EA5C
:1036B000050BCF6807FA0AFC4CEA0B0787604768DE
:1036C00027EA0E0EC4F300179F4047EA0E07476033
:1036D000C7683D408F6807FA0AF73D43C560E500BB
:1036E0005DD54FF0000BCDF80CB0D8F84470364DD6
:1036F00047F48047C8F84470D8F8447007F480470E
:103700000397039F23F0030707F1804707F59C37D2
:1037100003F0030CD7F808A04FEA8C0C4FF00F0E03
:103720000EFA0CFEA8422AEA0E0E3FD005F580657F
:10373000A8423DD005F58065A8423BD005F58065DF
:10374000A84239D005F58065A84237D0484537D022
:1037500005F50065A84214BF0725062505FA0CF5F6
:1037600045EA0E05BD601568F74314F4803F0CBFB1
:103770003D4035431560556814F4003F0CBF3D4093
:1037800035435560956814F4801F0CBF3D403543A8
:103790009560D568A40254BF3D403543D5600133E0
:1037A000102B7FF448AF05B0BDE8F08F5D46D5E73C
:1037B0000125D3E70225D1E70325CFE70425CDE78F
:1037C0000525CBE7003C01400000024000380240E4
:1037D000001402402DE9F04F434EDFF81491DFF85A
:1037E00014A1DFF814B100244FF0010808FA04F224
:1037F00032EA010366D103236500076803FA05F581
:10380000ED4324FA03FC2F4000EB8C0C0760DCF83E
:10381000207004F0070E3B464FEA8E0E0F2707FA82
:103820000EFE23EA0E0ECCF820E0D0F808E02F4B75
:1038300005EA0E0EC0F808E0D0F804E0D24302EA30
:103840000E0EC0F804E0D0F80CE005EA0E05C560E5
:1038500024F0030505F1804505F59C3504F0030EC1
:10386000D5F808C04FEA8E0E07FA0EF798420CEA18
:10387000070C2CD003F5806398422AD003F58063AF
:10388000984228D003F58063984226D0484526D038
:10389000504526D058450CBF0623072303FA0EF3E4
:1038A0009C450FD1AB6823EA0707AF60336813402C
:1038B0003360736813407360B3681340B360F36898
:1038C0001A40F2600134102C90D1BDE8F08F002333
:1038D000E4E70123E2E70223E0E70323DEE7042332
:1038E000DCE70523DAE700BF003C014000000240AE
:1038F0000010024000140240001802400AB1816129
:1039000070470904FBE72DE9FF41044690F8900257
:103910009DF828609DF82C70BDF830E0012821D07A
:10392000012084F89002282000FB014002F07F0C67
:10393000D50980F8383080F8391080F83F7080F869
:103940003AC080F83B5080F83C60A0F840E08DE839
:10395000C040206802F0A6FD002384F8903204B035
:10396000BDE8F0810220FAE790F89032012B10B503
:10397000044609D0012380F89032006802F04BFF22
:10398000002084F8900210BD022010BD2DE9F04106
:1039900007468AB0A0B303233C4680F8913204F076
:1039A000C9FF54F8100B02F051FC0FCC6D460FC547
:1039B0000FCC0FC594E8030085E8030007F1040865
:1039C0003E4698E80E00386802F000FC56F8100BEE
:1039D000012102F041FC0FCE6D460FC50FCE0FC581
:1039E00094E8030085E8030098E80E00386802F0C8
:1039F000AFFC012387F8913200200AB0BDE8F081C6
:103A00000120FAE7F0B5282606FB01069DF814E030
:103A1000069DBDF81C409DF8207086F83B2086F876
:103A20003F30BEF1000F0ED14FF0030E022B86F88F
:103A300042E04AD0734555D0012B2FD1282303FBF8
:103A40000103002255E04FF0020C86F842C0032B20
:103A500024D801A656F823F0693A00083D3A000838
:103A6000CB3A0008E53A0008BEF1010F16D1AAB919
:103A700024B9282303FB010383F851E0282303FB27
:103A8000010292F85160F6B982F8426003FB01032B
:103A900093F85C20022A01D083F83D70282606FBAB
:103AA0000103002283F8391019465D649C6483F891
:103AB0005C20DA6483F85D203831027C0068BDE860
:103AC000F04002F05BBD0226DEE7282303FB010382
:103AD00092B993F851601EB983F842202823D5E7A4
:103AE0000222F9E7282303FB01032AB993F8516066
:103AF00036B983F84220D1E793F85020002AF8D055
:103B00000222F6E72DE9F04F066887B004463046FA
:103B100002F002FC012840F0EC80206802F0F8FB83
:103B2000002800F0E680206802F0F2FB810248BF26
:103B30002368206844BF4FF400125A6102F0E8FB8A
:103B4000C20248BF2368206844BF4FF480125A6104
:103B500002F0DEFB430148BF2368206844BF4FF0FA
:103B600080625A6102F0D4FB870748BF236820684F
:103B700044BF02225A6102F0CBFB850010D5D6F873
:103B8000403423F02E03C6F84034204604F016FFDC
:103B90000121206802F046FC23684FF000525A6170
:103BA000206802F0B5FBC00140D52568D5F8403447
:103BB0000493D5F840340593059B23F02E03059319
:103BC000049B99070DD5049BDA0706D5AB6923F052
:103BD0000053AB61204604F0EDFE059B43F0020369
:103BE0000593049B1B0717D5059B43F0080305931A
:103BF000049B5F0740F18880A16902297CD1049B66
:103C0000206803F4C023B3F5802F18BF012102F010
:103C100009FC204604F0CEFE049B980642BF059B9B
:103C200043F020030593059BC5F84034206802F05B
:103C30006FFB010705D5204604F0B8FE2368082273
:103C40005A61206802F064FB820114D5206802F0FA
:103C5000D3FD06F5A063029001934FF0000B4FF0E7
:103C6000010A28274FF00209A3689B4558D323680F
:103C70004FF000725A61206802F04AFBC30638D543
:103C80002568AB6923F01003AB612F6AC7F3434388
:103C9000022B29D1C7F30A18B8F1000F24D007F07E
:103CA0000F07282606FB0746716CE9B142462846F5
:103CB00002F020FB736C4344736405F5A065F36C5C
:103CC00005EB47154344F3642A69B74B13405BB1D6
:103CD0002B6823F0804343F000432B6096F850306C
:103CE00083F0010386F850302268936943F0100393
:103CF000936107B0BDE8F08FE368032B04BF4EF675
:103D00006022C5F8042484E7D5F84034226823F003
:103D10002E03C5F84034936943F0005393617BE769
:103D2000029A0AFA0BF3134200F08680019B206886
:103D30001B6813F4004F5FFA8BF500F00A816A01EB
:103D400000F5A06802EB0806B1684B0713D5042103
:103D5000B160F16841F00201F160B1688B053DD5B9
:103D6000F368206843F00203F360294602F053FD34
:103D70004FF400732BE1B168890602D52021B160B0
:103D8000EBE7B1680B0713D5F168039241F002012C
:103D9000F16007FB05414FF0050E81F85DE0102151
:103DA000B1600821B160294602F035FD039AD4E7DD
:103DB000B1684905D1D5F168039241F00201F16083
:103DC000294602F028FD1021B16007FB05410820BB
:103DD00081F85D004FF48061B160E7E7B168C80722
:103DE00040D5216949B107FB054E3069DEF848101E
:103DF000C0F31200091ACEF84C1007FB0541002051
:103E0000886581F85DA0C6F808A091F83F0010F021
:103E1000FD0F17D1F368206843F00203F3602946D1
:103E200002F0F9FC1023B36007FB054595F850300C
:103E300083F0010385F85030019B20330BF1010B17
:103E4000019311E70328EFD152F8080040F0005029
:103E500042F8080081F85CA001222946204604F0BF
:103E6000B1FDE1E7B168890735D5F16807FB054089
:103E700021F00201F16090F85D1001290CD180F869
:103E80005C1007FB0543C6F8089093F85C202946B0
:103E9000204604F097FDCFE70529F0D0062901D090
:103EA0000829EED107FB0541886D032800F10103C5
:103EB00088BF00208B6583BF8865042081F85C0083
:103EC00081F85C9052F8081021F0804141F00041E7
:103ED00042F80810D5E7B1680B0611D5F3682068E1
:103EE00043F00203F36007FB054329469A6D013254
:103EF0009A65062283F85D2002F08DFC802366E03F
:103F0000B168C80698D507FB054191F83F10032911
:103F100009D1F1682068039241F00201F16029465D
:103F200002F079FC039A07FB0545032185F85D1033
:103F30001021B16095F83F1011F0FD0F7FF47CAFB8
:103F400052F8081021F0804141F0004142F8081079
:103F500072E700F5A06606EB4516B368590706D56B
:103F60000423B360F36843F00203F36064E7B368CB
:103F700013F020031AD02023B36007FB054393F806
:103F80003D20012A7FF458AF042283F85D20F268B7
:103F9000039342F00202F260294602F03CFC039BCC
:103FA00083F85C9048E700BF0000F81FB268520633
:103FB0000FD507FB054204219365F36882F85D1075
:103FC00043F00203F360294602F025FC4023B3606E
:103FD00032E7B26812F4007205D0F36843F00203CE
:103FE000F3602946C2E6B368D90710D507FB05433D
:103FF00029469A65F268039342F00202F26002F0E9
:104000000AFC039BC6F808A083F85DA014E7B36818
:104010001A070ED50823B360F36843F00203F36078
:10402000294602F0F8FB07FB0545052385F85D30BE
:1040300002E7B368DB0611D507FB054300229A654A
:10404000F268039342F00202F260294602F0E3FBB9
:10405000039B032283F85D201023B8E7B368190699
:104060000CD5F36843F00203F360294607FB0545CE
:1040700002F0D1FB062385F85D303FE7B16811F40B
:1040800080610FD0F36843F00203F360294602F029
:10409000C2FB1023B3604FF48063B36007FB054598
:1040A0000823C3E7B3689A077FF5C6AEF36823F029
:1040B0000203F36007FB054393F85D20012A0DD14D
:1040C00083F85C2093F83F20022A7FF4DAAE93F85D
:1040D000512082F0010283F85120D2E6032A02D156
:1040E00083F85C90CDE6042A04D183F85C9083F8D1
:1040F0003D10C6E6052A02D183F85C20C1E6062AF7
:1041000002D0082A7FF4BDAE07FB05439A6D511C0F
:10411000032A9965E4D900229A650422ECE700BFDE
:1041200038B590F89032012B04460DD0012580F867
:104130009052006802F084F82946206802F08FF956
:10414000002084F8900238BD022038BD90F89032EB
:10415000012B10B5044609D0012380F89032006885
:1041600002F07EFC002084F8900210BD022010BDF9
:10417000282303FB010191F85C007047282303FB0F
:104180000101C86C7047006802F087B90268536982
:1041900013F480630DD06FF48063536104230364D0
:1041A00020220023036380F83C3080F83D2001206A
:1041B0007047184670472DE9F8430446174699465C
:1041C000C1F307488EB22568B8F1010F0CBF6B69C7
:1041D000AB6936EA030314BF0120002008B9BDE82B
:1041E000F8836B695A0512D52B6843F400732B6072
:1041F0006FF480636B610423236420220023236314
:1042000084F83C3084F83D200120BDE8F8837B1C15
:10421000D9D04FB900232022236384F83C3084F89E
:104220003D200320BDE8F883FEF7C2FEA0EB0900A5
:104230008742C8D2EEE72DE9F843089E044690462F
:104240001F46C1F307498DB22368B9F1010F0CBFB6
:104250005B699B6935EA03030CBF012300234345D7
:1042600002D00020BDE8F8837B1CEDD05FB90023AD
:104270002022236384F83C3084F83D20032084F816
:104280003E30BDE8F883FEF793FE801B8742DBD209
:10429000EDE770B504460D46164623685B691B06BC
:1042A00001D5002070BD2046FFF770FFA8B96A1C39
:1042B000F3D065B9236C43F020032364202200234C
:1042C000236384F83C3084F83D20032070BDFEF762
:1042D0006FFE801B8542E0D2ECE7012070BD00003C
:1042E0002DE9FF41154602680B9E9846136843F47A
:1042F000807313600F4600960A9B00224FF0011155
:104300000446FFF798FF68B923680A9A1C4907F02A
:10431000FE071F6120463346FFF74DFF30B1236C87
:10432000042B18D0032004B0BDE8F081236803906B
:104330005A6903929B69039332460A99039B20466C
:10434000FFF7A7FF48B1236C042BEBD12268136859
:1043500043F4007313600120E5E7B8F1010F23680F
:1043600002D1EDB21D61DEE72A0A1A610A993246CE
:104370002046FFF78EFF0028E5D12368F1E700BF54
:10438000020001002DE9FF41984603680B9D164687
:104390001A6842F480621A601A6842F480721A60E5
:1043A0000F4600950A9B00224FF001110446FFF7CB
:1043B00042FF80B923682F49FFB207F0FE021A615D
:1043C00020462B460A9AFFF7F6FE40B1236C042BD9
:1043D00001D1012000E0032004B0BDE8F081236892
:1043E00003905A6903929B6903932A460A99039B97
:1043F0002046FFF74EFF40B1236C042BEBD122681F
:10440000136843F400731360E3E7B8F1010F236806
:1044100024D1F6B21E612A460A992046FFF739FFD9
:1044200002460028E8D121680B6843F480730B60D2
:10443000204600950A9B4FF00111FFF7FCFE002873
:10444000C9D123680A9A0B4947F001071F6120462A
:104450002B46FFF7B0FE0028B8D1BDE7320A1A613B
:104460000A992A462046FFF714FF0028C4D1236882
:10447000CFE700BF0200010070B504460D461646A6
:104480002068436913F0400301D0002070BD4269E9
:10449000D2060BD56FF0100242612022236484F80B
:1044A0003C302363012084F83D2070BD5DB9236C4E
:1044B00043F020032364202384F83D30002384F854
:1044C0003C30032070BDFEF773FD801B8542D7D2C0
:1044D000EDE770B504460D46164623685B695B0739
:1044E00001D5002070BD2046FFF750FEA8B96A1C18
:1044F000F3D065B9236C43F020032364202200230A
:10450000236384F83C3084F83D20032070BDFEF71F
:104510004FFD801B8542E0D2ECE7012070BD00001A
:1045200070B50446002862D090F83D3003F0FF02D9
:104530001BB980F83C2003F0B9FF22682D4E2E4DA8
:10454000242384F83D30136823F00103136000F046
:1045500081FB63682268B0FBF5F5B34284BF4FF47A
:1045600096716943556091BF691C4FF47A75B1FB30
:10457000F5F10131B342116221D85B00B0FBF3F0D9
:10458000C0F30B03032B98BF0420216AE369D061B9
:104590000B431360E16823690B439360A16963696E
:1045A0000B43D360136843F0010313600020202302
:1045B000206484F83D30206384F83E0070BDA1681B
:1045C00049B903EB4303B0FBF3F0C0F30B0363B152
:1045D00040F40040D9E719214B43B0FBF3F0C0F39E
:1045E0000B0313B140F44040CFE70120CDE7012099
:1045F00070BD00BFA086010040420F0010B5044608
:1046000098B10268242380F83D30136823F0010339
:10461000136003F085FF0020206484F83C0084F8D8
:104620003D00206384F83E0010BD012010BD000055
:104630002DE9F34704469A46884691460C9EFEF7BC
:10464000B7FC94F83D30202B054603D0022002B081
:10465000BDE8F0870090192301223E492046FFF76C
:10466000EAFD0028F2D194F83C30012BEED0012372
:1046700084F83C3023681A68D2075EBF1A6842F09B
:1046800001021A601A6822F400621A60212384F879
:104690003D30402384F83E300A9B63620027BDF81A
:1046A0002C30276463852C4BE362638D2385019551
:1046B000009653464A4641462046FFF711FE002821
:1046C0002AD0236C84F83C70042B07D10120BEE76C
:1046D000FFF7DFFD20B1236C042B34D00320B6E7B5
:1046E000616A2768228D4B1C63620B783B61638D86
:1046F000013B9BB263857B69501E80B25B072085BE
:104700000AD548B18B1C63624B783B61638D013BDA
:10471000023A9BB222856385238D2A463146204684
:10472000002BD5D1FFF7D5FE0028D4D1226813681D
:1047300043F400731360202384F83D3084F83C0078
:1047400084F83E0083E72268136843F40073136023
:10475000BCE700BF020010000000FFFF2DE9F0479A
:10476000044686B09A460D469146109FFEF720FCFF
:1047700094F83D30202B064604D00225284606B08A
:10478000BDE8F08700901923012279492046FFF700
:1047900052FD0028F1D194F83C30012BEDD00123DB
:1047A00084F83C3023681A68D2075EBF1A6842F06A
:1047B00001021A601A6822F400621A60222384F847
:1047C0003D30402384F83E300E9B63624FF000087A
:1047D000BDF83C30C4F840806385664BE362638D6E
:1047E000238529460196009753464A462046FFF7FF
:1047F000C9FD054630B1236C84F83C80042B3AD1C6
:104800000125BBE7228D236892B902905A69029272
:104810009A690292029A1A6842F400721A6020237E
:1048200084F83D30002384F83E3084F83C30A5E71E
:10483000012A22D11A6822F480621A6003905A6910
:1048400003929A690392039A1A6842F400721A60FA
:10485000DFF82481238D002BE1D0032B6BD8012BB3
:1048600023D1324639462046FFF706FE002839D0CC
:10487000236C202BC4D1032580E7022A0ED11A68AD
:1048800022F480621A601A6842F400621A6004908E
:104890005A6904929B690493049BD9E705905A696D
:1048A00005929B690593059BD2E7022B00963B4638
:1048B0004FF000024146204622D1FFF7BCFC002801
:1048C000D9D123681A6842F400721A60626A1B69BF
:1048D000511C61621370238D013B2385638D013B65
:1048E0009BB26385636A5A1C6262226812691A70FD
:1048F000238D013B2385638D013B9BB26385A9E733
:10490000FFF799FC02460028B5D12368196821F405
:1049100080611960616A1B69481C60620B70238D9D
:104920000096013B2385638D013B9BB26385414625
:104930003B462046C1E7324639462046FFF79CFDFC
:10494000002895D1636A5A1C6262226812691A7043
:10495000238D2268013B2385638D013B9BB26385D8
:1049600053695B077FF576AF636A591C6162BDE7E7
:10497000020010000000FFFF0400010090F83D005D
:10498000704790F83D20D2B2202A10B516D12423CA
:1049900080F83D3003681C6824F001041C605C6AE8
:1049A00024F010045C625C6A21435962196841F08A
:1049B0000101196080F83D20002010BD022010BDCB
:1049C0002DE9F041069D04460F461646984621689B
:1049D0008A683A4214BF01220022B24202D100206A
:1049E000BDE8F0816B1CF3D04DB9042384F841304D
:1049F000636C43F0010363640120BDE8F081FEF7BE
:104A0000D7FAA0EB08008542E1D2EEE737B50446BD
:104A1000FEF7CEFA0546002C4DD094F84030012B1D
:104A20004BD0012384F8403094F8412002F0FF037A
:104A30003AB984F84030204603F088FD41F28833CB
:104A4000A3642068A1680268A36C013922F4F852BB
:104A500042EA012202602021009300222B462046D8
:104A6000FFF7AEFF10BBE569E36822682B43256AB8
:104A700011682B43656821F07F4143EA056321F00B
:104A8000D0010B431360A169636955680B43216929
:104A900043EA01430A4929400B435360136843F03A
:104AA000010313600123606484F84130002384F81B
:104AB000403003B030BD0120FBE70220F9E700BF22
:104AC000FEF8E0FF134908B58B6803F00C03042BD4
:104AD00003D0082B03D0104808BD104808BD4A6811
:104AE0004B68496813F4800314BF0C480A48C1F3AB
:104AF000881118BF002302F03F02A1FB0001FBF761
:104B0000D1FF044B5B68C3F3014301335B00B0FB8F
:104B1000F3F008BD003802400024F40040787D0125
:104B20002DE9F0410D46044610B90120BDE8F081A1
:104B3000444B1A6802F00F028A4228D321688F077B
:104B40002DD4C80740D43F4B1A6802F00F0295429B
:104B500066D3226851076CD4130707D53A4A2169F6
:104B6000936823F4604343EAC1039360FFF7AAFF0D
:104B7000354B364A9B68C3F30313D35CD840344BA0
:104B800018600020FEF7CAF90020BDE8F081CAB223
:104B90001A701B6803F00F039942C6D1CEE72A4B67
:104BA00011F0040F1EBF9A6842F4E0529A600E079B
:104BB00042BF9A6842F460429A609A68A06822F004
:104BC000F00202439A60BCE762681F4B012A1DD1C4
:104BD0001B6813F4003FA8D01B4EB36823F00303F7
:104BE0001343B360FEF7E4F941F288380746B3682F
:104BF000626803F00C03B3EB820FA4D0FEF7D8F980
:104C0000C01B4045F3D90320BDE8F081911E012966
:104C10001B6802D813F0007FDDE713F0020FDAE71C
:104C2000EAB21A701B6803F00F039D427FF47DAF58
:104C30008FE70549E0688B6823F4E05303438B60FA
:104C40008AE700BF003C024000380240EBBB00088E
:104C50003C010020044B054A9B68C3F38223D35CCC
:104C6000034A1068D840704700380240FBBB000878
:104C70003C010020044B054A9B68C3F34233D35CDC
:104C8000034A1068D840704700380240FBBB000858
:104C90003C01002003682DE9F34113F001050446AF
:104CA0000BD08F49C569D1F88C2022F0C0622A430D
:104CB000B5FA85F5C1F88C206D099A070BD588489F
:104CC000216AD0F88C2022F0C0520A430029C0F893
:104CD0008C2008BF01259F0418D58149A06CD1F80C
:104CE0008C2022F440120243C1F88C20002800F0EE
:104CF000C280B0F5001F09D1D1F88C20606922F480
:104D0000F852013842EA0022C1F88C205E0418D51E
:104D10007349E06CD1F88C2022F440020243C1F8C0
:104D20008C20002800F0A980B0F5000F09D1D1F83F
:104D30008C20606922F4F852013842EA0022C1F85E
:104D40008C20180733D500230193654B654E1A6CF0
:104D500042F080521A641B6C03F080530193019B54
:104D6000336843F480733360FEF722F907463368F3
:104D7000D90540F184805A4E336F13F4407340F0EC
:104D80008880636A03F44072B2F5407F544A40F071
:104D9000A280916823F0704021F4F81120F4407053
:104DA00001439160116FC3F30B030B431367236837
:104DB0005F0742BF4C4B94F854201A602268D60615
:104DC00008D54749E06AD1F8943023F440030343FF
:104DD000C1F8943090060CD54148216BD0F894303E
:104DE00023F000630B43B1F1006FC0F8943008BFAB
:104DF0000125510608D53A49A06AD1F8943023F02C
:104E000080530343C1F89430012D71D0802A6FD0B4
:104E10002068C20500F1E280810508D5304AA16B07
:104E2000D2F88C3023F400430B43C2F88C30420597
:104E300008D52B4AE16BD2F88C3023F000430B43AA
:104E4000C2F88C30030508D5254A216CD2F88C3085
:104E500023F480430B43C2F88C3010F4805015D0FB
:104E60001F4A616CD2F8943023F040430B43C2F8E0
:104E7000943000200AE0012548E7012561E7FEF7AC
:104E800097F8C01B02287FF672AF032002B0BDE87E
:104E9000F081626A02F4407293423FF472AF336F62
:104EA000124A0121116023F440730021116033671D
:104EB000336FDA077FF565AFFEF77AF841F288388D
:104EC0000746336F9B073FF55CAFFEF771F8C01BD9
:104ED0004045F6D9D9E7916821F4F81161E700BFA0
:104EE0000038024000700040E0114742400E474247
:104EF0003F4D404E00232B60FEF75AF807463368BB
:104F00001B0165D43C4B226D1A602268D70701D57E
:104F1000E3698BB1960701D5236A6BB1900603D57F
:104F2000236BB3F1006F07D0510612D5A36A83B982
:104F3000236BB3F1006F0CD1E368A1681B0643EA51
:104F4000811361680B43216943EA01732949C1F860
:104F50008430930401D5A36C1BB1570419D5E36CBD
:104F6000BBB924496068D1F8843003F0706303430F
:104F7000A06843EA8013206943EA0073C1F88430D3
:104F8000D1F88C00A36920F01F00013B0343C1F856
:104F90008C3016060CD5E368A2681B0643EA821320
:104FA00062681343226943EA0273124AC2F88430EA
:104FB00001232B60FDF7FCFF0E4D06462B68180100
:104FC0003FF526AFFDF7F4FF801B0228F6D95CE71A
:104FD000FDF7EEFFC01B022891D956E7054A616B29
:104FE000D2F88C3023F000430B43C2F88C3013E727
:104FF0006800474200380240D810474203682DE954
:10500000F341DD07044610D4236898075BD4236876
:105010001A0700F19D8023685B0700F1BB80A2693D
:10502000002A40F01C81002015E0A74B9A6802F08E
:105030000C02042A07D09A6802F00C02082A0DD14B
:105040005B6859020AD5A04B1B689A03DCD56368DC
:10505000002BD9D1012002B0BDE8F08163689A4DE0
:10506000B3F5803F11D12B6843F480332B60FDF7FB
:105070009FFF954D06462B689B03C5D4FDF798FF0F
:10508000801B6428F7D90320E5E7B3F5A02F04D1EE
:105090002B6843F480232B60E5E72A6822F48032F2
:1050A0002A602A6822F480222A60002BDFD1FDF7D3
:1050B0007FFF06462B689F03A6D5FDF779FF801B6F
:1050C0006428F7D9DFE7804B9A6812F00C0F07D0FD
:1050D0009A6802F00C02082A11D15B685E020ED4B5
:1050E000794B1A68950702D5E268012AB2D11A688D
:1050F000216922F0F80242EAC1021A6087E7E268F9
:10510000724BB2B101221A60FDF752FF6E4D064696
:105110002B68980707D52B68226923F0F80343EA28
:10512000C2032B6073E7FDF743FF801B0228EFD912
:10513000A9E71A60FDF73CFF634D06462B68990707
:105140007FF565AFFDF734FF801B0228F6D99AE79B
:1051500062695F4B7AB101221A60FDF729FF5A4D4F
:1051600006466B6F9F073FF556AFFDF721FF801B8B
:105170000228F6D987E71A60FDF71AFF524D064656
:105180006B6F98077FF547AFFDF712FF801B022872
:10519000F6D978E74C4B1A6C12F0805228D1019264
:1051A0001A6C42F080521A641B6C03F08053019316
:1051B000019B0126474D2B68D9051BD5A368424D9D
:1051C000012B27D12B6F43F001032B67FDF7F0FE76
:1051D0003D4D074641F288382B6F9B0739D5002E8D
:1051E0003FF41DAF384A136C23F08053136416E765
:1051F0000026DFE72B6843F480732B60FDF7D8FEB1
:1052000007462B68DA05D9D4FDF7D2FEC01B022869
:10521000F7D938E7052B04D12B6F43F004032B6734
:10522000D0E72A6F22F001022A672A6F22F00402D7
:105230002A67002BCAD1FDF7BBFE41F2883807462A
:105240002B6F9807CBD5FDF7B3FEC01B4045F7D9B0
:1052500019E7FDF7ADFEC01B4045BDD913E71A4D58
:10526000AB6803F00C03082B3FF4F4AE1A4E002396
:10527000022A336038D1FDF79BFE07462B6899015F
:105280002CD4226AE3691343626A43EA8213E26A16
:1052900043EA0263226B43EA0273A26A0A4C520891
:1052A000013A43EA02436B6001233360FDF780FE5D
:1052B000054623689A013FF5B6AEFDF779FE401B1F
:1052C0000228F6D9DFE600BF00380240000047425E
:1052D000800E47420070004060004742FDF768FEC4
:1052E000C01B0228CAD9CEE6FDF762FE04462B6831
:1052F0009B017FF598AEFDF75BFE001B0228F6D9F7
:10530000C1E600BF2DE9F04389B005460E46FDF722
:105310004FFE00238146082128680093019300F086
:10532000E2FD044640BB296D2868090400F06CFECC
:10533000044608BB4FF0FF33029308230393302346
:105340000493022305930690012302A9286807937A
:1053500000F0B6FD286800F088FE044660B90746F4
:1053600040F22A482868436B13EA080F436B07D0C2
:10537000190718D508248463204609B0BDE8F083D6
:105380009B0207D500F0E4FC08AB03EB8703013771
:1053900043F8200CFDF70CFEA0EB09000130E1D131
:1053A0004FF00044E8E7436B9A0701D50224E2E797
:1053B000436B9B0601D52024DDE740F2FF53836356
:1053C000009B1BBA7360019B1BBA3360D4E7436E2A
:1053D0009A0F0A70C3F383624A70C3F301628A7042
:1053E000C3F30742CA70C3F30722DBB20A714B71E1
:1053F000836E1A0E1201CA80CA8830B592B2C3F306
:1054000003542243CA80C3F303420A72C3F3072240
:10541000D4094C72C2F380148C72C2F34014CC7263
:10542000C2F300140C7300244C73446C002C40F045
:105430008380920202F440620A610A699B0003F4CD
:105440007F7313430B61C26E0B6943EA92730B6166
:10545000C2F3C2630B75C2F302634B75C2F34253CE
:105460008B75C2F38243CB75D30B03F006030B7627
:105470000C7EC2F30723C2F3C03222430A760A69C4
:105480000C7E01320234A24042650D7A0124AC4008
:105490008465640A6243C2654FF400720266C3F316
:1054A00080125B0003F07E034A768B76C36E8A7EA1
:1054B000C3F3C014224303F07F038A76CB76036FD5
:1054C000DA0F0A77C3F341724A77C3F382628A77AD
:1054D0009A0D02F00C02CA77CA7FC3F381500243CF
:1054E000CA77C3F3405281F820200020C3F3004262
:1054F00081F8210081F82220C3F3C03281F82320F3
:10550000C3F3803281F82420C3F3403281F8252090
:10551000C3F3003281F82620C3F3812281F82720CB
:10552000C3F30122C3F3460381F8282081F8293010
:10553000012381F82A3030BD012C1AD11B0403F459
:105540007C130B61C36E0A691C0E42EA04220A61D5
:105550000C69C3F3074222430A610A69920202F509
:1055600080624265C2654FF40072C3F3072382650F
:1055700094E7036840F2FF529A63836B43F08053D1
:105580008363012380F83430184630BDF0B599B0FC
:10559000002576230C930A950B950AAB044693E8F5
:1055A00007008DE807006F4E07950895099507AB32
:1055B0000ECB206800F0B0FB01273560206800F0BA
:1055C000CAFB37600220FDF7F9FC2068069500F061
:1055D000BBFC064668B9206800F0DEFC80B3A66418
:1055E0004FF6FF75069B5A1CAB42069208D14FF04E
:1055F0008076012084F83400A16B0E43A66381E01D
:105600000021206800F000FD014610B14FF08056E7
:10561000EFE7206800F010FD01460028F6D1206871
:1056200000F0B4FB0028DDDA002363642068012366
:10563000ADF8163000F093FB10BB4FF080656BE0C7
:10564000A7644FF6FF75069B5A1CAB420692CED05C
:105650000021206800F0D8FC06460028C9D14FF090
:105660008041206800F0E8FC06460028C1D10146D0
:10567000206800F08BFBC30FE5D04200D4D5D4E7FF
:10568000636C032B1AD0206800F007FD0546002844
:1056900042D10146206800F079FB04216067206850
:1056A00000F074FB0821A067206800F06FFB0C215C
:1056B000E067206800F06AFBC4F88000636C032B8D
:1056C00022D1636C032B2ED10421206800F05EFBF5
:1056D000000DE0640DA92046FFF779FE226D2068D9
:1056E0001204002300F017FC0546A8B904F11003CA
:1056F00093E807008DE80700231D0ECB206800F01B
:105700000BFB284619B0F0BD0DF11601206800F022
:10571000EFFC05460028D4D0012084F83400A36BA8
:105720001D43A563EEE7BDF8161021652068090446
:1057300000F0C8FC05460028EED10146206800F0C4
:1057400025FB04216066206800F020FB0821A0668C
:10575000206800F01BFB0C21E066206800F016FBBF
:105760002067B1E7A080254210B50446A0B190F8AB
:10577000343003F0FF0213B9027702F07FFF0323F6
:1057800084F834302046FFF701FF00200123A06396
:10579000206384F8343010BD012010BD70B50323A0
:1057A00080F83430436C032B8AB004460E4602D096
:1057B000B1F5805F03D1A36B43F0805356E0B1F5A0
:1057C000006F2DD1002100680491059100F0DEFAF0
:1057D000800120D404A92046FFF794FD60B9059B01
:1057E00059031AD5216D2068090400F00DFC18B981
:1057F0000221206800F0E8FCA36B1843A063A56BAE
:10580000002D35D0236840F2FF5201209A6384F8BE
:1058100034000AB070BD3046EEE74FF08060EBE731
:1058200009BB00680491059100F0B0FA820114D41C
:1058300004A92046FFF766FD60B9059BDB030FD581
:10584000216D2068090400F0DFFB18B901462068CB
:1058500000F0BAFCA16B0843D0E74FF40060F9E711
:105860004FF08060F6E7836B43F00063A363C6E705
:1058700063680493A3680593E368069363690893D8
:10588000A369099307960AAB13E907008DE807009F
:1058900004AB0ECB206800F03FFA012384F83430CB
:1058A0002846B6E770B50E461546044610B390F884
:1058B000493003F0FF021BB980F8482002F08CFF4A
:1058C00004F10801206800F05FF9A2682068314601
:1058D00000F098F9236BA2686068294600F0B8F9D7
:1058E000A168226852F8213043F0010342F82130C8
:1058F000002070BD012070BD2DE9F0470668C26828
:105900003369C16923F44053134333610446836808
:105910000069F2680343606922F41642034322F0EF
:105920000C020B431343F3607369A26923F44073C1
:105930001343B1F5004F73617A4B7CD19E4203D083
:1059400003F580639E4244D1FFF794F9192505FBC6
:1059500000F360684FF064094000B3FBF0F3B3FB61
:10596000F9F34FEA0318FFF785F9636868435B00B2
:10597000B0FBF3F7FFF77EF9636868435B00B0FBA9
:10598000F3F3B3FBF9F309FB1373DB003233B3FB1F
:10599000F9F35B0003F4F877FFF76CF9626868438A
:1059A0005200B0FBF2FAFFF765F9636868435B00E9
:1059B000B0FBF3F3B3FBF9F309FB13A3DB003233C2
:1059C000B3FBF9F303F0070343443B44B360BDE882
:1059D000F087FFF73FF9192505FB00F360684FF0EA
:1059E00064094000B3FBF0F3B3FBF9F34FEA03188B
:1059F000FFF730F9636868435B00B0FBF3F7FFF72C
:105A000029F9636868435B00B0FBF3F3B3FBF9F378
:105A100009FB1373DB003233B3FBF9F35B0003F4D0
:105A2000F877FFF717F9626868435200B0FBF2FAA3
:105A3000FFF710F9B9E79E4202D03B4B9E4240D19E
:105A4000FFF718F9676819254FF0640905FB00F3A3
:105A5000BF00B3FBF7F3B3FBF9F31F01FFF70AF93C
:105A6000636868439B00B0FBF3F8FFF703F96368D2
:105A700068439B00B0FBF3F3B3FBF9F309FB13831B
:105A80001B013233B3FBF9F303F0F008FFF7F2F830
:105A9000626868439200B0FBF2FAFFF7EBF86368C4
:105AA00068439B00B0FBF3F3B3FBF9F309FB13A3CB
:105AB0001B013233B3FBF9F303F00F0343EA08038E
:105AC00083E7FFF7C7F8676819254FF0640905FBFE
:105AD00000F3BF00B3FBF7F3B3FBF9F31F01FFF7CC
